{
  "contractName": "BAKASUAV",
  "abi": [
    {
      "inputs": [],
      "stateMutability": "nonpayable",
      "type": "constructor"
    },
    {
      "anonymous": false,
      "inputs": [
        {
          "indexed": true,
          "internalType": "address",
          "name": "requester",
          "type": "address"
        }
      ],
      "name": "_QueryCert",
      "type": "event"
    },
    {
      "anonymous": false,
      "inputs": [
        {
          "indexed": true,
          "internalType": "address",
          "name": "requester",
          "type": "address"
        }
      ],
      "name": "_QueryCred",
      "type": "event"
    },
    {
      "anonymous": false,
      "inputs": [
        {
          "indexed": true,
          "internalType": "address",
          "name": "requester",
          "type": "address"
        }
      ],
      "name": "_UpdateCert",
      "type": "event"
    },
    {
      "anonymous": false,
      "inputs": [
        {
          "indexed": true,
          "internalType": "address",
          "name": "requester",
          "type": "address"
        }
      ],
      "name": "_UpdateCred",
      "type": "event"
    },
    {
      "inputs": [
        {
          "internalType": "uint256",
          "name": "",
          "type": "uint256"
        }
      ],
      "name": "CertificateT",
      "outputs": [
        {
          "internalType": "uint160",
          "name": "PID",
          "type": "uint160"
        },
        {
          "internalType": "uint32",
          "name": "ET",
          "type": "uint32"
        }
      ],
      "stateMutability": "view",
      "type": "function",
      "constant": true
    },
    {
      "inputs": [
        {
          "internalType": "uint256",
          "name": "",
          "type": "uint256"
        }
      ],
      "name": "CredentialT",
      "outputs": [
        {
          "internalType": "uint160",
          "name": "PID",
          "type": "uint160"
        },
        {
          "internalType": "uint32",
          "name": "ET",
          "type": "uint32"
        }
      ],
      "stateMutability": "view",
      "type": "function",
      "constant": true
    },
    {
      "inputs": [],
      "name": "GCS",
      "outputs": [
        {
          "internalType": "address",
          "name": "",
          "type": "address"
        }
      ],
      "stateMutability": "view",
      "type": "function",
      "constant": true
    },
    {
      "inputs": [
        {
          "internalType": "address",
          "name": "",
          "type": "address"
        }
      ],
      "name": "registeredUAVs",
      "outputs": [
        {
          "internalType": "bool",
          "name": "",
          "type": "bool"
        }
      ],
      "stateMutability": "view",
      "type": "function",
      "constant": true
    },
    {
      "inputs": [],
      "name": "round",
      "outputs": [
        {
          "internalType": "uint256",
          "name": "",
          "type": "uint256"
        }
      ],
      "stateMutability": "view",
      "type": "function",
      "constant": true
    },
    {
      "inputs": [
        {
          "internalType": "address",
          "name": "_UAV",
          "type": "address"
        }
      ],
      "name": "registerUAV",
      "outputs": [],
      "stateMutability": "nonpayable",
      "type": "function"
    },
    {
      "inputs": [
        {
          "internalType": "uint256[2]",
          "name": "Cert",
          "type": "uint256[2]"
        },
        {
          "internalType": "uint32",
          "name": "ET",
          "type": "uint32"
        },
        {
          "internalType": "uint160",
          "name": "npid",
          "type": "uint160"
        }
      ],
      "name": "UpdateCert",
      "outputs": [
        {
          "internalType": "address",
          "name": "addr",
          "type": "address"
        }
      ],
      "stateMutability": "nonpayable",
      "type": "function"
    },
    {
      "inputs": [
        {
          "internalType": "uint256[2]",
          "name": "Cred",
          "type": "uint256[2]"
        },
        {
          "internalType": "uint32",
          "name": "ET",
          "type": "uint32"
        },
        {
          "internalType": "uint160",
          "name": "npid",
          "type": "uint160"
        }
      ],
      "name": "UpdateCred",
      "outputs": [
        {
          "internalType": "address",
          "name": "addr",
          "type": "address"
        }
      ],
      "stateMutability": "nonpayable",
      "type": "function"
    },
    {
      "inputs": [
        {
          "internalType": "uint256",
          "name": "pid",
          "type": "uint256"
        }
      ],
      "name": "QueryCert",
      "outputs": [
        {
          "internalType": "uint256[2]",
          "name": "Cert",
          "type": "uint256[2]"
        },
        {
          "internalType": "uint32",
          "name": "ET",
          "type": "uint32"
        },
        {
          "internalType": "bool",
          "name": "found",
          "type": "bool"
        }
      ],
      "stateMutability": "view",
      "type": "function",
      "constant": true
    },
    {
      "inputs": [
        {
          "internalType": "uint256",
          "name": "pid",
          "type": "uint256"
        }
      ],
      "name": "QueryCred",
      "outputs": [
        {
          "internalType": "uint256[2]",
          "name": "Cred",
          "type": "uint256[2]"
        },
        {
          "internalType": "uint32",
          "name": "ET",
          "type": "uint32"
        },
        {
          "internalType": "bool",
          "name": "found",
          "type": "bool"
        }
      ],
      "stateMutability": "view",
      "type": "function",
      "constant": true
    }
  ],
  "bytecode": "0x608060405234801561001057600080fd5b5060008054600160a060020a0319163317815560015561095c806100356000396000f3fe608060405234801561001057600080fd5b50600436106100bb576000357c0100000000000000000000000000000000000000000000000000000000900480639967810011610083578063996781001461019b578063c35d4a62146101ae578063cd0a73f5146101e7578063d5daf2c1146101fa578063d7ac6cb01461022d57600080fd5b806308650fd9146100c0578063146ca5311461012257806359b34e51146101395780635cc227fa1461015b578063730a01ac14610186575b600080fd5b6100f96100ce366004610758565b60026020526000908152604090208054600390910154600160a060020a039091169063ffffffff1682565b60408051600160a060020a03909316835263ffffffff9091166020830152015b60405180910390f35b61012b60015481565b604051908152602001610119565b61014c610147366004610758565b610240565b60405161011993929190610771565b61016e610169366004610823565b6102f3565b604051600160a060020a039091168152602001610119565b6101996101943660046108c2565b610455565b005b60005461016e90600160a060020a031681565b6100f96101bc366004610758565b60036020819052600091825260409091208054910154600160a060020a039091169063ffffffff1682565b61014c6101f5366004610758565b6104ed565b61021d6102083660046108c2565b60046020526000908152604090205460ff1681565b6040519015158152602001610119565b61016e61023b366004610823565b610591565b6102486106e7565b60008060005b6001548110156102e657600081815260036020526040902054600160a060020a03168590036102d4576000818152600360208190526040918290209081015482518084019384905260019283019363ffffffff9092169291849060029082845b8154815260200190600101908083116102ae5750505050509250935093509350506102ec565b806102de816108e6565b91505061024e565b50600090505b9193909250565b3360009081526004602052604081205460ff16610397576040517f08c379a000000000000000000000000000000000000000000000000000000000815260206004820152602f60248201527f4f6e6c792072656769737465726564205541562063616e20757064617465206960448201527f74732063726564656e7469616c732e000000000000000000000000000000000060648201526084015b60405180910390fd5b600180546000908152600260208190526040808320805473ffffffffffffffffffffffffffffffffffffffff1916600160a060020a038816179055835483529091206103e69201908690610705565b50600180546000908152600260205260408120600301805463ffffffff191663ffffffff87161790558154919061041c836108e6565b909155505060405133907fad8a210116cfc412b6e0b7db939b89bc012b9942de0407af405d87b4650230a190600090a250339392505050565b600054600160a060020a031633146104c9576040517f08c379a000000000000000000000000000000000000000000000000000000000815260206004820152601a60248201527f4f6e6c79204743532063616e207265676973746572205541562e000000000000604482015260640161038e565b600160a060020a03166000908152600460205260409020805460ff19166001179055565b6104f56106e7565b60008060005b6001548110156102e657600081815260026020526040902054600160a060020a031685900361057f5760008181526002602081815260409283902060038101548451808601958690526001808401805483529663ffffffff9093169590949193879391929083019085018083116102ae5750505050509250935093509350506102ec565b80610589816108e6565b9150506104fb565b60008054600160a060020a0316331461062c576040517f08c379a000000000000000000000000000000000000000000000000000000000815260206004820152602360248201527f4f6e6c79204743532063616e2075706461746520697473207075626c6963206b60448201527f65792e0000000000000000000000000000000000000000000000000000000000606482015260840161038e565b60018054600090815260036020526040808220805473ffffffffffffffffffffffffffffffffffffffff1916600160a060020a0387161790558254825290206106789101856002610705565b50600180546000908152600360208190526040822001805463ffffffff191663ffffffff8716179055815491906106ae836108e6565b909155505060405133907f01b32028306ebfc7b91966ef56c920e8786db0fc27ca7c68daf4b574ac9bc56390600090a250339392505050565b60405180604001604052806002906020820280368337509192915050565b8260028101928215610733579160200282015b82811115610733578251825591602001919060010190610718565b5061073f929150610743565b5090565b5b8082111561073f5760008155600101610744565b60006020828403121561076a57600080fd5b5035919050565b60808101818560005b600281101561079957815183526020928301929091019060010161077a565b50505063ffffffff841660408301528215156060830152949350505050565b7f4e487b7100000000000000000000000000000000000000000000000000000000600052604160045260246000fd5b803563ffffffff811681146107fb57600080fd5b919050565b600160a060020a038116811461081557600080fd5b50565b80356107fb81610800565b60008060006080848603121561083857600080fd5b84601f85011261084757600080fd5b6040516040810181811067ffffffffffffffff8211171561086a5761086a6107b8565b806040525080604086018781111561088157600080fd5b865b8181101561089b578035835260209283019201610883565b508295506108a8816107e7565b94505050506108b960608501610818565b90509250925092565b6000602082840312156108d457600080fd5b81356108df81610800565b9392505050565b60006001820161091f577f4e487b7100000000000000000000000000000000000000000000000000000000600052601160045260246000fd5b506001019056fea2646970667358221220a68be820740a6ffb1a502c7a1c6a7554289818954217efa4b21e34ac81e63b1764736f6c63430008150033",
  "immutableReferences": {},
  "source": "// SPDX-License-Identifier: MIT\npragma solidity ^0.8.0;\n\ncontract BAKASUAV {\n    address public GCS; // GCS\n    uint256 public round; //  round\n\n\n    // Credential\n    struct Credential {  \n        uint160 PID;\n        uint256[2] Cred; //  Cert  Cred_p, Cred_n\n        uint32 ET;       // unit32  ET\n    }\n\n    // Certificate\n    struct Certificate {\n        uint160 PID;      \n        uint256[2] Cert;  //  Cert  Cert_p, Cert_n\n        uint32 ET;        // unit32  ET\n    }\n\n    mapping(uint256 => Credential) public CredentialT;    // CredentialT\n    mapping(uint256 => Certificate) public CertificateT;  // CertificateT\n    mapping(address => bool) public registeredUAVs;       // UAV\n\n    event _UpdateCert(address indexed requester); \n    event _UpdateCred(address indexed requester); \n    event _QueryCert(address indexed requester);  \n    event _QueryCred(address indexed requester);  \n\n    // GCS\n    constructor() {\n        GCS = msg.sender;\n        round = 0; //  round  0\n    }\n\n    // GCSUAV\n    function registerUAV(address _UAV) public {\n        require(msg.sender == GCS, \"Only GCS can register UAV.\");\n        registeredUAVs[_UAV] = true;\n    }\n\n    // GCS\n    function UpdateCert(uint256[2] memory Cert, uint32 ET, uint160 npid) public returns (address addr){ \n        require(msg.sender == GCS, \"Only GCS can update its public key.\");\n        \n        CertificateT[round].PID=npid;\n        CertificateT[round].Cert=Cert;\n        CertificateT[round].ET = ET;\n        round++; //  round\n        emit _UpdateCert(msg.sender);  // _update\n        return msg.sender;\n    }\n\n    // UAV\n    function UpdateCred(uint256[2] memory Cred, uint32 ET, uint160 npid) public returns (address addr){ \n        require(registeredUAVs[msg.sender], \"Only registered UAV can update its credentials.\");\n        \n        CredentialT[round].PID=npid;\n        CredentialT[round].Cred=Cred;\n        CredentialT[round].ET = ET;\n        round++; //  round\n        emit _UpdateCred(msg.sender);  // _update\n        return msg.sender;\n    }\n\n    // GCS\n    function QueryCert(uint256 pid) public view returns (uint256[2] memory Cert, uint32 ET, bool found) {\n        // _QueryCert(msg.sender);  // _query\n        for (uint256 i = 0; i < round; i++) {\n            if (CertificateT[i].PID == pid) {\n                return (CertificateT[i].Cert, CertificateT[i].ET, true);\n            }\n        }\n        return (Cert, ET, false); // false\n        // return (CertificateT[pid].Cert, CertificateT[pid].ET);\n    }\n\n    // UAV\n    function QueryCred(uint256 pid) public view returns (uint256[2] memory Cred, uint32 ET, bool found) {\n        // _QueryCred(msg.sender);  // _query\n        for (uint256 i = 0; i < round; i++) {\n            if (CredentialT[i].PID == pid) {\n                return (CredentialT[i].Cred, CredentialT[i].ET, true);\n            }\n        }\n        return (Cred, ET, false); // false\n    }\n}\n",
  "sourcePath": "/Users/cryptohkk/Documents/PhD/Experiment/BAKASUAV/contracts/BAKASUAV.sol",
  "compiler": {
    "name": "solc",
    "version": "0.8.21+commit.d9974bed.Emscripten.clang"
  },
  "schemaVersion": "3.4.16",
  "updatedAt": "2023-12-22T05:02:27.894Z",
  "networkType": "ethereum",
  "devdoc": {
    "kind": "dev",
    "methods": {},
    "version": 1
  },
  "userdoc": {
    "kind": "user",
    "methods": {},
    "version": 1
  }
}